{
  "_format": "hh-sol-artifact-1",
  "contractName": "TokenLocking",
  "sourceName": "contracts/TokenLocking.sol",
  "abi": [
    {
      "inputs": [
        {
          "internalType": "uint256",
          "name": "initialSupply",
          "type": "uint256"
        },
        {
          "internalType": "uint256",
          "name": "_rewardRate",
          "type": "uint256"
        },
        {
          "internalType": "uint256",
          "name": "_minLockTime",
          "type": "uint256"
        }
      ],
      "stateMutability": "nonpayable",
      "type": "constructor"
    },
    {
      "inputs": [
        {
          "internalType": "address",
          "name": "spender",
          "type": "address"
        },
        {
          "internalType": "uint256",
          "name": "allowance",
          "type": "uint256"
        },
        {
          "internalType": "uint256",
          "name": "needed",
          "type": "uint256"
        }
      ],
      "name": "ERC20InsufficientAllowance",
      "type": "error"
    },
    {
      "inputs": [
        {
          "internalType": "address",
          "name": "sender",
          "type": "address"
        },
        {
          "internalType": "uint256",
          "name": "balance",
          "type": "uint256"
        },
        {
          "internalType": "uint256",
          "name": "needed",
          "type": "uint256"
        }
      ],
      "name": "ERC20InsufficientBalance",
      "type": "error"
    },
    {
      "inputs": [
        {
          "internalType": "address",
          "name": "approver",
          "type": "address"
        }
      ],
      "name": "ERC20InvalidApprover",
      "type": "error"
    },
    {
      "inputs": [
        {
          "internalType": "address",
          "name": "receiver",
          "type": "address"
        }
      ],
      "name": "ERC20InvalidReceiver",
      "type": "error"
    },
    {
      "inputs": [
        {
          "internalType": "address",
          "name": "sender",
          "type": "address"
        }
      ],
      "name": "ERC20InvalidSender",
      "type": "error"
    },
    {
      "inputs": [
        {
          "internalType": "address",
          "name": "spender",
          "type": "address"
        }
      ],
      "name": "ERC20InvalidSpender",
      "type": "error"
    },
    {
      "inputs": [
        {
          "internalType": "address",
          "name": "owner",
          "type": "address"
        }
      ],
      "name": "OwnableInvalidOwner",
      "type": "error"
    },
    {
      "inputs": [
        {
          "internalType": "address",
          "name": "account",
          "type": "address"
        }
      ],
      "name": "OwnableUnauthorizedAccount",
      "type": "error"
    },
    {
      "inputs": [],
      "name": "ReentrancyGuardReentrantCall",
      "type": "error"
    },
    {
      "anonymous": false,
      "inputs": [
        {
          "indexed": true,
          "internalType": "address",
          "name": "owner",
          "type": "address"
        },
        {
          "indexed": true,
          "internalType": "address",
          "name": "spender",
          "type": "address"
        },
        {
          "indexed": false,
          "internalType": "uint256",
          "name": "value",
          "type": "uint256"
        }
      ],
      "name": "Approval",
      "type": "event"
    },
    {
      "anonymous": false,
      "inputs": [
        {
          "indexed": false,
          "internalType": "uint256",
          "name": "newPenaltyRate",
          "type": "uint256"
        }
      ],
      "name": "EarlyUnlockPenaltyRateUpdated",
      "type": "event"
    },
    {
      "anonymous": false,
      "inputs": [
        {
          "indexed": true,
          "internalType": "address",
          "name": "owner",
          "type": "address"
        },
        {
          "indexed": false,
          "internalType": "uint256",
          "name": "amount",
          "type": "uint256"
        }
      ],
      "name": "EtherWithdrawn",
      "type": "event"
    },
    {
      "anonymous": false,
      "inputs": [
        {
          "indexed": false,
          "internalType": "uint256",
          "name": "duration",
          "type": "uint256"
        },
        {
          "indexed": false,
          "internalType": "uint256",
          "name": "rewardRate",
          "type": "uint256"
        }
      ],
      "name": "LockOptionAdded",
      "type": "event"
    },
    {
      "anonymous": false,
      "inputs": [
        {
          "indexed": true,
          "internalType": "address",
          "name": "previousOwner",
          "type": "address"
        },
        {
          "indexed": true,
          "internalType": "address",
          "name": "newOwner",
          "type": "address"
        }
      ],
      "name": "OwnershipTransferred",
      "type": "event"
    },
    {
      "anonymous": false,
      "inputs": [
        {
          "indexed": true,
          "internalType": "address",
          "name": "user",
          "type": "address"
        },
        {
          "indexed": false,
          "internalType": "uint256",
          "name": "reward",
          "type": "uint256"
        }
      ],
      "name": "RewardCalculated",
      "type": "event"
    },
    {
      "anonymous": false,
      "inputs": [
        {
          "indexed": true,
          "internalType": "address",
          "name": "user",
          "type": "address"
        },
        {
          "indexed": false,
          "internalType": "uint256",
          "name": "amount",
          "type": "uint256"
        },
        {
          "indexed": false,
          "internalType": "uint256",
          "name": "lockTime",
          "type": "uint256"
        },
        {
          "indexed": false,
          "internalType": "uint256",
          "name": "etherSent",
          "type": "uint256"
        }
      ],
      "name": "TokensLocked",
      "type": "event"
    },
    {
      "anonymous": false,
      "inputs": [
        {
          "indexed": true,
          "internalType": "address",
          "name": "user",
          "type": "address"
        },
        {
          "indexed": false,
          "internalType": "uint256",
          "name": "amount",
          "type": "uint256"
        }
      ],
      "name": "TokensUnlocked",
      "type": "event"
    },
    {
      "anonymous": false,
      "inputs": [
        {
          "indexed": true,
          "internalType": "address",
          "name": "from",
          "type": "address"
        },
        {
          "indexed": true,
          "internalType": "address",
          "name": "to",
          "type": "address"
        },
        {
          "indexed": false,
          "internalType": "uint256",
          "name": "value",
          "type": "uint256"
        }
      ],
      "name": "Transfer",
      "type": "event"
    },
    {
      "inputs": [
        {
          "internalType": "uint256",
          "name": "duration",
          "type": "uint256"
        },
        {
          "internalType": "uint256",
          "name": "rate",
          "type": "uint256"
        }
      ],
      "name": "addLockOption",
      "outputs": [],
      "stateMutability": "nonpayable",
      "type": "function"
    },
    {
      "inputs": [
        {
          "internalType": "address",
          "name": "owner",
          "type": "address"
        },
        {
          "internalType": "address",
          "name": "spender",
          "type": "address"
        }
      ],
      "name": "allowance",
      "outputs": [
        {
          "internalType": "uint256",
          "name": "",
          "type": "uint256"
        }
      ],
      "stateMutability": "view",
      "type": "function"
    },
    {
      "inputs": [
        {
          "internalType": "address",
          "name": "spender",
          "type": "address"
        },
        {
          "internalType": "uint256",
          "name": "value",
          "type": "uint256"
        }
      ],
      "name": "approve",
      "outputs": [
        {
          "internalType": "bool",
          "name": "",
          "type": "bool"
        }
      ],
      "stateMutability": "nonpayable",
      "type": "function"
    },
    {
      "inputs": [
        {
          "internalType": "address",
          "name": "account",
          "type": "address"
        }
      ],
      "name": "balanceOf",
      "outputs": [
        {
          "internalType": "uint256",
          "name": "",
          "type": "uint256"
        }
      ],
      "stateMutability": "view",
      "type": "function"
    },
    {
      "inputs": [
        {
          "internalType": "address",
          "name": "",
          "type": "address"
        }
      ],
      "name": "compartments",
      "outputs": [
        {
          "internalType": "uint256",
          "name": "lockedAmount",
          "type": "uint256"
        },
        {
          "internalType": "uint256",
          "name": "lockStartTime",
          "type": "uint256"
        },
        {
          "internalType": "uint256",
          "name": "lockEndTime",
          "type": "uint256"
        },
        {
          "internalType": "bool",
          "name": "isLocked",
          "type": "bool"
        }
      ],
      "stateMutability": "view",
      "type": "function"
    },
    {
      "inputs": [],
      "name": "decimals",
      "outputs": [
        {
          "internalType": "uint8",
          "name": "",
          "type": "uint8"
        }
      ],
      "stateMutability": "view",
      "type": "function"
    },
    {
      "inputs": [],
      "name": "earlyUnlockPenaltyRate",
      "outputs": [
        {
          "internalType": "uint256",
          "name": "",
          "type": "uint256"
        }
      ],
      "stateMutability": "view",
      "type": "function"
    },
    {
      "inputs": [],
      "name": "earlyUnlockTokens",
      "outputs": [],
      "stateMutability": "nonpayable",
      "type": "function"
    },
    {
      "inputs": [],
      "name": "gracePeriod",
      "outputs": [
        {
          "internalType": "uint256",
          "name": "",
          "type": "uint256"
        }
      ],
      "stateMutability": "view",
      "type": "function"
    },
    {
      "inputs": [
        {
          "internalType": "uint256",
          "name": "",
          "type": "uint256"
        }
      ],
      "name": "lockOptions",
      "outputs": [
        {
          "internalType": "uint256",
          "name": "duration",
          "type": "uint256"
        },
        {
          "internalType": "uint256",
          "name": "rewardRate",
          "type": "uint256"
        }
      ],
      "stateMutability": "view",
      "type": "function"
    },
    {
      "inputs": [
        {
          "internalType": "uint256",
          "name": "amount",
          "type": "uint256"
        },
        {
          "internalType": "uint256",
          "name": "optionIndex",
          "type": "uint256"
        }
      ],
      "name": "lockTokens",
      "outputs": [],
      "stateMutability": "payable",
      "type": "function"
    },
    {
      "inputs": [],
      "name": "minLockTime",
      "outputs": [
        {
          "internalType": "uint256",
          "name": "",
          "type": "uint256"
        }
      ],
      "stateMutability": "view",
      "type": "function"
    },
    {
      "inputs": [],
      "name": "name",
      "outputs": [
        {
          "internalType": "string",
          "name": "",
          "type": "string"
        }
      ],
      "stateMutability": "view",
      "type": "function"
    },
    {
      "inputs": [],
      "name": "owner",
      "outputs": [
        {
          "internalType": "address",
          "name": "",
          "type": "address"
        }
      ],
      "stateMutability": "view",
      "type": "function"
    },
    {
      "inputs": [],
      "name": "renounceOwnership",
      "outputs": [],
      "stateMutability": "nonpayable",
      "type": "function"
    },
    {
      "inputs": [],
      "name": "rewardRate",
      "outputs": [
        {
          "internalType": "uint256",
          "name": "",
          "type": "uint256"
        }
      ],
      "stateMutability": "view",
      "type": "function"
    },
    {
      "inputs": [],
      "name": "symbol",
      "outputs": [
        {
          "internalType": "string",
          "name": "",
          "type": "string"
        }
      ],
      "stateMutability": "view",
      "type": "function"
    },
    {
      "inputs": [],
      "name": "totalSupply",
      "outputs": [
        {
          "internalType": "uint256",
          "name": "",
          "type": "uint256"
        }
      ],
      "stateMutability": "view",
      "type": "function"
    },
    {
      "inputs": [
        {
          "internalType": "address",
          "name": "to",
          "type": "address"
        },
        {
          "internalType": "uint256",
          "name": "value",
          "type": "uint256"
        }
      ],
      "name": "transfer",
      "outputs": [
        {
          "internalType": "bool",
          "name": "",
          "type": "bool"
        }
      ],
      "stateMutability": "nonpayable",
      "type": "function"
    },
    {
      "inputs": [
        {
          "internalType": "address",
          "name": "from",
          "type": "address"
        },
        {
          "internalType": "address",
          "name": "to",
          "type": "address"
        },
        {
          "internalType": "uint256",
          "name": "value",
          "type": "uint256"
        }
      ],
      "name": "transferFrom",
      "outputs": [
        {
          "internalType": "bool",
          "name": "",
          "type": "bool"
        }
      ],
      "stateMutability": "nonpayable",
      "type": "function"
    },
    {
      "inputs": [
        {
          "internalType": "address",
          "name": "newOwner",
          "type": "address"
        }
      ],
      "name": "transferOwnership",
      "outputs": [],
      "stateMutability": "nonpayable",
      "type": "function"
    },
    {
      "inputs": [],
      "name": "unlockTokens",
      "outputs": [],
      "stateMutability": "nonpayable",
      "type": "function"
    },
    {
      "inputs": [
        {
          "internalType": "uint256",
          "name": "newPenaltyRate",
          "type": "uint256"
        }
      ],
      "name": "updateEarlyUnlockPenaltyRate",
      "outputs": [],
      "stateMutability": "nonpayable",
      "type": "function"
    },
    {
      "inputs": [],
      "name": "withdrawEther",
      "outputs": [],
      "stateMutability": "nonpayable",
      "type": "function"
    }
  ],
  "bytecode": "0x60a0604052610e10600855600a6009553480156200001c57600080fd5b506040516200362338038062003623833981810160405281019062000042919062000584565b336040518060400160405280600a81526020017f546f6b656e204c6f636b000000000000000000000000000000000000000000008152506040518060400160405280600381526020017f544c4b00000000000000000000000000000000000000000000000000000000008152508160039081620000c0919062000850565b508060049081620000d2919062000850565b505050600073ffffffffffffffffffffffffffffffffffffffff168173ffffffffffffffffffffffffffffffffffffffff16036200014a5760006040517f1e4fbdf70000000000000000000000000000000000000000000000000000000081526004016200014191906200097c565b60405180910390fd5b6200015b81620001b860201b60201c565b506001600681905550620001a033620001796200027e60201b60201c565b600a62000187919062000b29565b8562000194919062000b7a565b6200028760201b60201c565b81600781905550806080818152505050505062000c6b565b6000600560009054906101000a900473ffffffffffffffffffffffffffffffffffffffff16905081600560006101000a81548173ffffffffffffffffffffffffffffffffffffffff021916908373ffffffffffffffffffffffffffffffffffffffff1602179055508173ffffffffffffffffffffffffffffffffffffffff168173ffffffffffffffffffffffffffffffffffffffff167f8be0079c531659141344cd1fd0a4f28419497f9722a3daafe3b4186f6b6457e060405160405180910390a35050565b60006012905090565b600073ffffffffffffffffffffffffffffffffffffffff168273ffffffffffffffffffffffffffffffffffffffff1603620002fc5760006040517fec442f05000000000000000000000000000000000000000000000000000000008152600401620002f391906200097c565b60405180910390fd5b62000310600083836200031460201b60201c565b5050565b600073ffffffffffffffffffffffffffffffffffffffff168373ffffffffffffffffffffffffffffffffffffffff16036200036a5780600260008282546200035d919062000bc5565b9250508190555062000440565b60008060008573ffffffffffffffffffffffffffffffffffffffff1673ffffffffffffffffffffffffffffffffffffffff16815260200190815260200160002054905081811015620003f9578381836040517fe450d38c000000000000000000000000000000000000000000000000000000008152600401620003f09392919062000c11565b60405180910390fd5b8181036000808673ffffffffffffffffffffffffffffffffffffffff1673ffffffffffffffffffffffffffffffffffffffff16815260200190815260200160002081905550505b600073ffffffffffffffffffffffffffffffffffffffff168273ffffffffffffffffffffffffffffffffffffffff16036200048b5780600260008282540392505081905550620004d8565b806000808473ffffffffffffffffffffffffffffffffffffffff1673ffffffffffffffffffffffffffffffffffffffff168152602001908152602001600020600082825401925050819055505b8173ffffffffffffffffffffffffffffffffffffffff168373ffffffffffffffffffffffffffffffffffffffff167fddf252ad1be2c89b69c2b068fc378daa952ba7f163c4a11628f55a4df523b3ef8360405162000537919062000c4e565b60405180910390a3505050565b600080fd5b6000819050919050565b6200055e8162000549565b81146200056a57600080fd5b50565b6000815190506200057e8162000553565b92915050565b600080600060608486031215620005a0576200059f62000544565b5b6000620005b0868287016200056d565b9350506020620005c3868287016200056d565b9250506040620005d6868287016200056d565b9150509250925092565b600081519050919050565b7f4e487b7100000000000000000000000000000000000000000000000000000000600052604160045260246000fd5b7f4e487b7100000000000000000000000000000000000000000000000000000000600052602260045260246000fd5b600060028204905060018216806200066257607f821691505b6020821081036200067857620006776200061a565b5b50919050565b60008190508160005260206000209050919050565b60006020601f8301049050919050565b600082821b905092915050565b600060088302620006e27fffffffffffffffffffffffffffffffffffffffffffffffffffffffffffffffff82620006a3565b620006ee8683620006a3565b95508019841693508086168417925050509392505050565b6000819050919050565b6000620007316200072b620007258462000549565b62000706565b62000549565b9050919050565b6000819050919050565b6200074d8362000710565b620007656200075c8262000738565b848454620006b0565b825550505050565b600090565b6200077c6200076d565b6200078981848462000742565b505050565b5b81811015620007b157620007a560008262000772565b6001810190506200078f565b5050565b601f8211156200080057620007ca816200067e565b620007d58462000693565b81016020851015620007e5578190505b620007fd620007f48562000693565b8301826200078e565b50505b505050565b600082821c905092915050565b6000620008256000198460080262000805565b1980831691505092915050565b600062000840838362000812565b9150826002028217905092915050565b6200085b82620005e0565b67ffffffffffffffff811115620008775762000876620005eb565b5b62000883825462000649565b62000890828285620007b5565b600060209050601f831160018114620008c85760008415620008b3578287015190505b620008bf858262000832565b8655506200092f565b601f198416620008d8866200067e565b60005b828110156200090257848901518255600182019150602085019450602081019050620008db565b868310156200092257848901516200091e601f89168262000812565b8355505b6001600288020188555050505b505050505050565b600073ffffffffffffffffffffffffffffffffffffffff82169050919050565b6000620009648262000937565b9050919050565b620009768162000957565b82525050565b60006020820190506200099360008301846200096b565b92915050565b7f4e487b7100000000000000000000000000000000000000000000000000000000600052601160045260246000fd5b60008160011c9050919050565b6000808291508390505b600185111562000a2757808604811115620009ff57620009fe62000999565b5b600185161562000a0f5780820291505b808102905062000a1f85620009c8565b9450620009df565b94509492505050565b60008262000a42576001905062000b15565b8162000a52576000905062000b15565b816001811462000a6b576002811462000a765762000aac565b600191505062000b15565b60ff84111562000a8b5762000a8a62000999565b5b8360020a91508482111562000aa55762000aa462000999565b5b5062000b15565b5060208310610133831016604e8410600b841016171562000ae65782820a90508381111562000ae05762000adf62000999565b5b62000b15565b62000af58484846001620009d5565b9250905081840481111562000b0f5762000b0e62000999565b5b81810290505b9392505050565b600060ff82169050919050565b600062000b368262000549565b915062000b438362000b1c565b925062000b727fffffffffffffffffffffffffffffffffffffffffffffffffffffffffffffffff848462000a30565b905092915050565b600062000b878262000549565b915062000b948362000549565b925082820262000ba48162000549565b9150828204841483151762000bbe5762000bbd62000999565b5b5092915050565b600062000bd28262000549565b915062000bdf8362000549565b925082820190508082111562000bfa5762000bf962000999565b5b92915050565b62000c0b8162000549565b82525050565b600060608201905062000c2860008301866200096b565b62000c37602083018562000c00565b62000c46604083018462000c00565b949350505050565b600060208201905062000c65600083018462000c00565b92915050565b60805161299562000c8e6000396000818161063e0152610cdc01526129956000f3fe60806040526004361061014b5760003560e01c80638da5cb5b116100b6578063cab21e401161006f578063cab21e401461048d578063d958adfc146104b8578063dd62ed3e146104e1578063f2fde38b1461051e578063f968f49314610547578063fef1c98a1461055e5761014b565b80638da5cb5b1461036657806395d89b4114610391578063a06db7dc146103bc578063a60ff766146103e7578063a7d9131f14610412578063a9059cbb146104505761014b565b806362f3a2a31161010857806362f3a2a31461027457806370a08231146102b4578063715018a6146102f15780637362377b146103085780637b0a47ee1461031f57806389158d8e1461034a5761014b565b806306fdde0314610150578063095ea7b31461017b57806318160ddd146101b85780631ee2a99f146101e357806323b872dd1461020c578063313ce56714610249575b600080fd5b34801561015c57600080fd5b50610165610575565b6040516101729190611c66565b60405180910390f35b34801561018757600080fd5b506101a2600480360381019061019d9190611d21565b610607565b6040516101af9190611d7c565b60405180910390f35b3480156101c457600080fd5b506101cd61062a565b6040516101da9190611da6565b60405180910390f35b3480156101ef57600080fd5b5061020a60048036038101906102059190611dc1565b610634565b005b34801561021857600080fd5b50610233600480360381019061022e9190611e01565b610775565b6040516102409190611d7c565b60405180910390f35b34801561025557600080fd5b5061025e6107a4565b60405161026b9190611e70565b60405180910390f35b34801561028057600080fd5b5061029b60048036038101906102969190611e8b565b6107ad565b6040516102ab9493929190611eb8565b60405180910390f35b3480156102c057600080fd5b506102db60048036038101906102d69190611e8b565b6107ea565b6040516102e89190611da6565b60405180910390f35b3480156102fd57600080fd5b50610306610832565b005b34801561031457600080fd5b5061031d610846565b005b34801561032b57600080fd5b506103346108f9565b6040516103419190611da6565b60405180910390f35b610364600480360381019061035f9190611dc1565b6108ff565b005b34801561037257600080fd5b5061037b610c18565b6040516103889190611f0c565b60405180910390f35b34801561039d57600080fd5b506103a6610c42565b6040516103b39190611c66565b60405180910390f35b3480156103c857600080fd5b506103d1610cd4565b6040516103de9190611da6565b60405180910390f35b3480156103f357600080fd5b506103fc610cda565b6040516104099190611da6565b60405180910390f35b34801561041e57600080fd5b5061043960048036038101906104349190611f27565b610cfe565b604051610447929190611f54565b60405180910390f35b34801561045c57600080fd5b5061047760048036038101906104729190611d21565b610d32565b6040516104849190611d7c565b60405180910390f35b34801561049957600080fd5b506104a2610d55565b6040516104af9190611da6565b60405180910390f35b3480156104c457600080fd5b506104df60048036038101906104da9190611f27565b610d5b565b005b3480156104ed57600080fd5b5061050860048036038101906105039190611f7d565b610de7565b6040516105159190611da6565b60405180910390f35b34801561052a57600080fd5b5061054560048036038101906105409190611e8b565b610e6e565b005b34801561055357600080fd5b5061055c610ef4565b005b34801561056a57600080fd5b506105736111b8565b005b60606003805461058490611fec565b80601f01602080910402602001604051908101604052809291908181526020018280546105b090611fec565b80156105fd5780601f106105d2576101008083540402835291602001916105fd565b820191906000526020600020905b8154815290600101906020018083116105e057829003601f168201915b5050505050905090565b6000806106126113b3565b905061061f8185856113bb565b600191505092915050565b6000600254905090565b61063c6113cd565b7f000000000000000000000000000000000000000000000000000000000000000082101561069f576040517f08c379a00000000000000000000000000000000000000000000000000000000081526004016106969061208f565b60405180910390fd5b600081116106e2576040517f08c379a00000000000000000000000000000000000000000000000000000000081526004016106d990612121565b60405180910390fd5b600b6040518060400160405280848152602001838152509080600181540180825580915050600190039060005260206000209060020201600090919091909150600082015181600001556020820151816001015550507f8733b9af656399cdce6ff66588042f30f1843c524781a9c255f2e02012e9dcb18282604051610769929190611f54565b60405180910390a15050565b6000806107806113b3565b905061078d858285611454565b6107988585856114e8565b60019150509392505050565b60006012905090565b600a6020528060005260406000206000915090508060000154908060010154908060020154908060030160009054906101000a900460ff16905084565b60008060008373ffffffffffffffffffffffffffffffffffffffff1673ffffffffffffffffffffffffffffffffffffffff168152602001908152602001600020549050919050565b61083a6113cd565b61084460006115dc565b565b61084e6113cd565b600047905061085b610c18565b73ffffffffffffffffffffffffffffffffffffffff166108fc829081150290604051600060405180830381858888f193505050501580156108a0573d6000803e3d6000fd5b506108a9610c18565b73ffffffffffffffffffffffffffffffffffffffff167f06097061aeda806b5e9cb4133d9899f332ff0913956567fc0f7ea15e3d19947c826040516108ee9190611da6565b60405180910390a250565b60075481565b6109076116a2565b6000821161094a576040517f08c379a00000000000000000000000000000000000000000000000000000000081526004016109419061218d565b60405180910390fd5b600b805490508110610991576040517f08c379a0000000000000000000000000000000000000000000000000000000008152600401610988906121f9565b60405180910390fd5b6000600b82815481106109a7576109a6612219565b5b9060005260206000209060020201604051806040016040529081600082015481526020016001820154815250509050600a60003373ffffffffffffffffffffffffffffffffffffffff1673ffffffffffffffffffffffffffffffffffffffff16815260200190815260200160002060030160009054906101000a900460ff1615610a66576040517f08c379a0000000000000000000000000000000000000000000000000000000008152600401610a5d90612294565b60405180910390fd5b82610a713330610de7565b1015610ab2576040517f08c379a0000000000000000000000000000000000000000000000000000000008152600401610aa990612300565b60405180910390fd5b6000610abf333086610775565b905080610b01576040517f08c379a0000000000000000000000000000000000000000000000000000000008152600401610af89061236c565b60405180910390fd5b6040518060800160405280858152602001428152602001836000015142610b2891906123bb565b815260200160011515815250600a60003373ffffffffffffffffffffffffffffffffffffffff1673ffffffffffffffffffffffffffffffffffffffff16815260200190815260200160002060008201518160000155602082015181600101556040820151816002015560608201518160030160006101000a81548160ff0219169083151502179055509050503373ffffffffffffffffffffffffffffffffffffffff167f90e20a62e0f2a608d33bd96a4e15cb853006a15caf4455f373b7b55de520b68c85846000015134604051610c02939291906123ef565b60405180910390a25050610c146116e8565b5050565b6000600560009054906101000a900473ffffffffffffffffffffffffffffffffffffffff16905090565b606060048054610c5190611fec565b80601f0160208091040260200160405190810160405280929190818152602001828054610c7d90611fec565b8015610cca5780601f10610c9f57610100808354040283529160200191610cca565b820191906000526020600020905b815481529060010190602001808311610cad57829003601f168201915b5050505050905090565b60085481565b7f000000000000000000000000000000000000000000000000000000000000000081565b600b8181548110610d0e57600080fd5b90600052602060002090600202016000915090508060000154908060010154905082565b600080610d3d6113b3565b9050610d4a8185856114e8565b600191505092915050565b60095481565b610d636113cd565b60008111610da6576040517f08c379a0000000000000000000000000000000000000000000000000000000008152600401610d9d90612498565b60405180910390fd5b806009819055507f3e0952c5a79e6ee73c63cd524a55fa523f709426988befd86cec410f8b41c43281604051610ddc9190611da6565b60405180910390a150565b6000600160008473ffffffffffffffffffffffffffffffffffffffff1673ffffffffffffffffffffffffffffffffffffffff16815260200190815260200160002060008373ffffffffffffffffffffffffffffffffffffffff1673ffffffffffffffffffffffffffffffffffffffff16815260200190815260200160002054905092915050565b610e766113cd565b600073ffffffffffffffffffffffffffffffffffffffff168173ffffffffffffffffffffffffffffffffffffffff1603610ee85760006040517f1e4fbdf7000000000000000000000000000000000000000000000000000000008152600401610edf9190611f0c565b60405180910390fd5b610ef1816115dc565b50565b610efc6116a2565b6000600a60003373ffffffffffffffffffffffffffffffffffffffff1673ffffffffffffffffffffffffffffffffffffffff16815260200190815260200160002090508060030160009054906101000a900460ff16610f90576040517f08c379a0000000000000000000000000000000000000000000000000000000008152600401610f8790612504565b60405180910390fd5b8060020154421015610fd7576040517f08c379a0000000000000000000000000000000000000000000000000000000008152600401610fce90612570565b60405180910390fd5b6008548160020154610fe991906123bb565b42111561102b576040517f08c379a0000000000000000000000000000000000000000000000000000000008152600401611022906125dc565b60405180910390fd5b600081600001549050600061103e6116f2565b905060008111156110e75760006110553383610d32565b905080611097576040517f08c379a000000000000000000000000000000000000000000000000000000000815260040161108e90612648565b60405180910390fd5b3373ffffffffffffffffffffffffffffffffffffffff167fd07a420afcdd49adbabe6d82ad92718bdf8577dcf328e9ef95e63a52b235968f836040516110dd9190611da6565b60405180910390a2505b6000836000018190555060008360030160006101000a81548160ff021916908315150217905550600061111a3384610d32565b90508061115c576040517f08c379a00000000000000000000000000000000000000000000000000000000081526004016111539061236c565b60405180910390fd5b3373ffffffffffffffffffffffffffffffffffffffff167fe7b379c6c1fa169e9079c25e9143b127637eef8ec8c9d5c06ddb4ab3e1195888846040516111a29190611da6565b60405180910390a2505050506111b66116e8565b565b6111c06116a2565b6000600a60003373ffffffffffffffffffffffffffffffffffffffff1673ffffffffffffffffffffffffffffffffffffffff16815260200190815260200160002090508060030160009054906101000a900460ff16611254576040517f08c379a000000000000000000000000000000000000000000000000000000000815260040161124b90612504565b60405180910390fd5b8060020154421061129a576040517f08c379a0000000000000000000000000000000000000000000000000000000008152600401611291906126b4565b60405180910390fd5b6000606460095483600001546112b091906126d4565b6112ba9190612745565b905060008183600001546112ce9190612776565b90506000836000018190555060008360030160006101000a81548160ff02191690831515021790555060006113033383610d32565b905080611345576040517f08c379a000000000000000000000000000000000000000000000000000000000815260040161133c9061236c565b60405180910390fd5b611356611350610c18565b84610d32565b503373ffffffffffffffffffffffffffffffffffffffff167fe7b379c6c1fa169e9079c25e9143b127637eef8ec8c9d5c06ddb4ab3e11958888360405161139d9190611da6565b60405180910390a2505050506113b16116e8565b565b600033905090565b6113c883838360016117da565b505050565b6113d56113b3565b73ffffffffffffffffffffffffffffffffffffffff166113f3610c18565b73ffffffffffffffffffffffffffffffffffffffff1614611452576114166113b3565b6040517f118cdaa70000000000000000000000000000000000000000000000000000000081526004016114499190611f0c565b60405180910390fd5b565b60006114608484610de7565b90507fffffffffffffffffffffffffffffffffffffffffffffffffffffffffffffffff81146114e257818110156114d2578281836040517ffb8f41b20000000000000000000000000000000000000000000000000000000081526004016114c9939291906127aa565b60405180910390fd5b6114e1848484840360006117da565b5b50505050565b600073ffffffffffffffffffffffffffffffffffffffff168373ffffffffffffffffffffffffffffffffffffffff160361155a5760006040517f96c6fd1e0000000000000000000000000000000000000000000000000000000081526004016115519190611f0c565b60405180910390fd5b600073ffffffffffffffffffffffffffffffffffffffff168273ffffffffffffffffffffffffffffffffffffffff16036115cc5760006040517fec442f050000000000000000000000000000000000000000000000000000000081526004016115c39190611f0c565b60405180910390fd5b6115d78383836119b1565b505050565b6000600560009054906101000a900473ffffffffffffffffffffffffffffffffffffffff16905081600560006101000a81548173ffffffffffffffffffffffffffffffffffffffff021916908373ffffffffffffffffffffffffffffffffffffffff1602179055508173ffffffffffffffffffffffffffffffffffffffff168173ffffffffffffffffffffffffffffffffffffffff167f8be0079c531659141344cd1fd0a4f28419497f9722a3daafe3b4186f6b6457e060405160405180910390a35050565b6002600654036116de576040517f3ee5aeb500000000000000000000000000000000000000000000000000000000815260040160405180910390fd5b6002600681905550565b6001600681905550565b600080600a60003373ffffffffffffffffffffffffffffffffffffffff1673ffffffffffffffffffffffffffffffffffffffff1681526020019081526020016000206040518060800160405290816000820154815260200160018201548152602001600282015481526020016003820160009054906101000a900460ff16151515158152505090506000816020015182604001516117909190612776565b9050600061179c6107a4565b600a6117a89190612914565b8260075485600001516117bb91906126d4565b6117c591906126d4565b6117cf9190612745565b905080935050505090565b600073ffffffffffffffffffffffffffffffffffffffff168473ffffffffffffffffffffffffffffffffffffffff160361184c5760006040517fe602df050000000000000000000000000000000000000000000000000000000081526004016118439190611f0c565b60405180910390fd5b600073ffffffffffffffffffffffffffffffffffffffff168373ffffffffffffffffffffffffffffffffffffffff16036118be5760006040517f94280d620000000000000000000000000000000000000000000000000000000081526004016118b59190611f0c565b60405180910390fd5b81600160008673ffffffffffffffffffffffffffffffffffffffff1673ffffffffffffffffffffffffffffffffffffffff16815260200190815260200160002060008573ffffffffffffffffffffffffffffffffffffffff1673ffffffffffffffffffffffffffffffffffffffff1681526020019081526020016000208190555080156119ab578273ffffffffffffffffffffffffffffffffffffffff168473ffffffffffffffffffffffffffffffffffffffff167f8c5be1e5ebec7d5bd14f71427d1e84f3dd0314c0f7b2291e5b200ac8c7c3b925846040516119a29190611da6565b60405180910390a35b50505050565b600073ffffffffffffffffffffffffffffffffffffffff168373ffffffffffffffffffffffffffffffffffffffff1603611a035780600260008282546119f791906123bb565b92505081905550611ad6565b60008060008573ffffffffffffffffffffffffffffffffffffffff1673ffffffffffffffffffffffffffffffffffffffff16815260200190815260200160002054905081811015611a8f578381836040517fe450d38c000000000000000000000000000000000000000000000000000000008152600401611a86939291906127aa565b60405180910390fd5b8181036000808673ffffffffffffffffffffffffffffffffffffffff1673ffffffffffffffffffffffffffffffffffffffff16815260200190815260200160002081905550505b600073ffffffffffffffffffffffffffffffffffffffff168273ffffffffffffffffffffffffffffffffffffffff1603611b1f5780600260008282540392505081905550611b6c565b806000808473ffffffffffffffffffffffffffffffffffffffff1673ffffffffffffffffffffffffffffffffffffffff168152602001908152602001600020600082825401925050819055505b8173ffffffffffffffffffffffffffffffffffffffff168373ffffffffffffffffffffffffffffffffffffffff167fddf252ad1be2c89b69c2b068fc378daa952ba7f163c4a11628f55a4df523b3ef83604051611bc99190611da6565b60405180910390a3505050565b600081519050919050565b600082825260208201905092915050565b60005b83811015611c10578082015181840152602081019050611bf5565b60008484015250505050565b6000601f19601f8301169050919050565b6000611c3882611bd6565b611c428185611be1565b9350611c52818560208601611bf2565b611c5b81611c1c565b840191505092915050565b60006020820190508181036000830152611c808184611c2d565b905092915050565b600080fd5b600073ffffffffffffffffffffffffffffffffffffffff82169050919050565b6000611cb882611c8d565b9050919050565b611cc881611cad565b8114611cd357600080fd5b50565b600081359050611ce581611cbf565b92915050565b6000819050919050565b611cfe81611ceb565b8114611d0957600080fd5b50565b600081359050611d1b81611cf5565b92915050565b60008060408385031215611d3857611d37611c88565b5b6000611d4685828601611cd6565b9250506020611d5785828601611d0c565b9150509250929050565b60008115159050919050565b611d7681611d61565b82525050565b6000602082019050611d916000830184611d6d565b92915050565b611da081611ceb565b82525050565b6000602082019050611dbb6000830184611d97565b92915050565b60008060408385031215611dd857611dd7611c88565b5b6000611de685828601611d0c565b9250506020611df785828601611d0c565b9150509250929050565b600080600060608486031215611e1a57611e19611c88565b5b6000611e2886828701611cd6565b9350506020611e3986828701611cd6565b9250506040611e4a86828701611d0c565b9150509250925092565b600060ff82169050919050565b611e6a81611e54565b82525050565b6000602082019050611e856000830184611e61565b92915050565b600060208284031215611ea157611ea0611c88565b5b6000611eaf84828501611cd6565b91505092915050565b6000608082019050611ecd6000830187611d97565b611eda6020830186611d97565b611ee76040830185611d97565b611ef46060830184611d6d565b95945050505050565b611f0681611cad565b82525050565b6000602082019050611f216000830184611efd565b92915050565b600060208284031215611f3d57611f3c611c88565b5b6000611f4b84828501611d0c565b91505092915050565b6000604082019050611f696000830185611d97565b611f766020830184611d97565b9392505050565b60008060408385031215611f9457611f93611c88565b5b6000611fa285828601611cd6565b9250506020611fb385828601611cd6565b9150509250929050565b7f4e487b7100000000000000000000000000000000000000000000000000000000600052602260045260246000fd5b6000600282049050600182168061200457607f821691505b60208210810361201757612016611fbd565b5b50919050565b7f4c6f636b2074696d65206d757374206265206174206c6561737420746865206d60008201527f696e696d756d206c6f636b2074696d6500000000000000000000000000000000602082015250565b6000612079603083611be1565b91506120848261201d565b604082019050919050565b600060208201905081810360008301526120a88161206c565b9050919050565b7f5265776172642072617465206d7573742062652067726561746572207468616e60008201527f207a65726f000000000000000000000000000000000000000000000000000000602082015250565b600061210b602583611be1565b9150612116826120af565b604082019050919050565b6000602082019050818103600083015261213a816120fe565b9050919050565b7f416d6f756e74206d7573742062652067726561746572207468616e207a65726f600082015250565b6000612177602083611be1565b915061218282612141565b602082019050919050565b600060208201905081810360008301526121a68161216a565b9050919050565b7f496e76616c6964206c6f636b206f7074696f6e00000000000000000000000000600082015250565b60006121e3601383611be1565b91506121ee826121ad565b602082019050919050565b60006020820190508181036000830152612212816121d6565b9050919050565b7f4e487b7100000000000000000000000000000000000000000000000000000000600052603260045260246000fd5b7f546f6b656e732061726520616c7265616479206c6f636b656400000000000000600082015250565b600061227e601983611be1565b915061228982612248565b602082019050919050565b600060208201905081810360008301526122ad81612271565b9050919050565b7f546f6b656e20616c6c6f77616e636520746f6f206c6f77000000000000000000600082015250565b60006122ea601783611be1565b91506122f5826122b4565b602082019050919050565b60006020820190508181036000830152612319816122dd565b9050919050565b7f546f6b656e207472616e73666572206661696c65640000000000000000000000600082015250565b6000612356601583611be1565b915061236182612320565b602082019050919050565b6000602082019050818103600083015261238581612349565b9050919050565b7f4e487b7100000000000000000000000000000000000000000000000000000000600052601160045260246000fd5b60006123c682611ceb565b91506123d183611ceb565b92508282019050808211156123e9576123e861238c565b5b92915050565b60006060820190506124046000830186611d97565b6124116020830185611d97565b61241e6040830184611d97565b949350505050565b7f50656e616c74792072617465206d75737420626520677265617465722074686160008201527f6e207a65726f0000000000000000000000000000000000000000000000000000602082015250565b6000612482602683611be1565b915061248d82612426565b604082019050919050565b600060208201905081810360008301526124b181612475565b9050919050565b7f4e6f20746f6b656e7320617265206c6f636b6564000000000000000000000000600082015250565b60006124ee601483611be1565b91506124f9826124b8565b602082019050919050565b6000602082019050818103600083015261251d816124e1565b9050919050565b7f4c6f636b20706572696f64206e6f742079657420657870697265640000000000600082015250565b600061255a601b83611be1565b915061256582612524565b602082019050919050565b600060208201905081810360008301526125898161254d565b9050919050565b7f556e6c6f636b20706572696f6420657870697265640000000000000000000000600082015250565b60006125c6601583611be1565b91506125d182612590565b602082019050919050565b600060208201905081810360008301526125f5816125b9565b9050919050565b7f526577617264207472616e73666572206661696c656400000000000000000000600082015250565b6000612632601683611be1565b915061263d826125fc565b602082019050919050565b6000602082019050818103600083015261266181612625565b9050919050565b7f4c6f636b20706572696f6420616c726561647920657870697265640000000000600082015250565b600061269e601b83611be1565b91506126a982612668565b602082019050919050565b600060208201905081810360008301526126cd81612691565b9050919050565b60006126df82611ceb565b91506126ea83611ceb565b92508282026126f881611ceb565b9150828204841483151761270f5761270e61238c565b5b5092915050565b7f4e487b7100000000000000000000000000000000000000000000000000000000600052601260045260246000fd5b600061275082611ceb565b915061275b83611ceb565b92508261276b5761276a612716565b5b828204905092915050565b600061278182611ceb565b915061278c83611ceb565b92508282039050818111156127a4576127a361238c565b5b92915050565b60006060820190506127bf6000830186611efd565b6127cc6020830185611d97565b6127d96040830184611d97565b949350505050565b60008160011c9050919050565b6000808291508390505b6001851115612838578086048111156128145761281361238c565b5b60018516156128235780820291505b8081029050612831856127e1565b94506127f8565b94509492505050565b600082612851576001905061290d565b8161285f576000905061290d565b8160018114612875576002811461287f576128ae565b600191505061290d565b60ff8411156128915761289061238c565b5b8360020a9150848211156128a8576128a761238c565b5b5061290d565b5060208310610133831016604e8410600b84101617156128e35782820a9050838111156128de576128dd61238c565b5b61290d565b6128f084848460016127ee565b925090508184048111156129075761290661238c565b5b81810290505b9392505050565b600061291f82611ceb565b915061292a83611e54565b92506129577fffffffffffffffffffffffffffffffffffffffffffffffffffffffffffffffff8484612841565b90509291505056fea2646970667358221220a8e6016fc01f67c718574df8da7f0176aedb4d397531e8a6fdcc017eb141c5ab64736f6c63430008180033",
  "linkReferences": {},
  "deployedLinkReferences": {}
}